:400000000010002011000000910800009108000080B500AF00F068FC80B584B000AF021CFB1D1A70204A3B1C0B3312781A701F4A3B1C0A3312781A700423013BFB6018E063
:400040001B4B1868391C0B31FA68131C5B009B18C3185B780B70164B1868391C0A31FA68131C5B009B18C3189B780B70FB68013BFB60FB68002B0ADB0D4B1968FA68131CF1
:400080005B009B185B5CFA1D12789A42D8D9094B3A1C0B3212781A60074B3A1C0A3212781A60BD4604B080BDCCF1FF0FCDF1FF0FD00000201CFF0B4020FF0B4080B500AF4B
:4000C000254B254A12688021C9020A431A601820FFF7A2FF214B19221A60052001F00CFD1F4B204A1278D2B21A60052001F0ECFD194B194A11681C4A0A401A601B4B1C4AD4
:400100001A601C4B11221A601B4B20221A601B4B10221A601A4B30221A601A4B30221A60194B30221A60194B21221A60184B802212061A60174B184A1A60184B184A1A6036
:40014000184B802212061A60174B184A1A60184B184A1A60BD4680BD00010B402CFF0B4028FF0B40E5F1FF0FFFFFFBFF04010B400600008008020240140202401802024045
:400180002002024024020240280202402C02024008010B4000000240FE00008040000240FE0000C080000240040002401000008044000240ED02008080B582B000AF72B678
:4001C000FB1D00221A7023E0FB1D1A78131C5B009B185B00484A9B183B603B681A78597809020A43997809040A43DB781B0613431A1C3B6819795B791B020B439BB2101C60
:40020000191C00F0EFFBFB1D1A78FB1D01321A70FB1D1B78012BD7D9384A394B101C191C00F0F0FB374BCC2292011A60364BC02292041A60354BEE2212021A60344B902228
:400240001A60344B0C221A60334BD82212011A60324B41221A60324BC02252031A60314B01221A60304BD82212011A602F4B06221A602F4B30221A602E4B06221A602E4B3F
:40028000992212041A602D4BD02212041A602C4B992212041A602B4B802292051A602A4B992212041A60294BC02292051A60284B284A1A60284B284A1278D2B202210A4325
:4002C000D2B21A70254B254A1278D2B23C218A43D2B214210A43D2B21A701F4B1E4A1278D2B216210A43D2B21A70FFF7E7FE00F0C9FBBD4602B080BDF82A0000042B000081
:40030000202B000000000140040001400C0001401000014000000440080004400001044008010440180104400803044000040440080404401804044000500F4008500F4042
:4003400010500F4018500F4030500F4038500F40E001054050C00E0000700F4001700F4010B5064C2378002B07D1054B002B02D0044800E000BF0123237010BD50010020CC
:4003800000000000542A000008B5084B002B03D00748084900E000BF07480368002B03D0064B002B00D0984708BDC04600000000542A000054010020C800002000000000E9
:4003C00080B590B000AF2D4B00221A602C4B00221A6001F071FA01F0C3FA00F0D9FC00F0A7FB62B600F0B6F8264B181C00F00AFC254B181C00F006FC244B181C00F002FCD9
:40040000234B181C00F0FEFB224B181C00F0FAFB214B181C00F0F6FB012001F071F9012001F024FA012001F021FA0020012100F053F80120012100F04FF80220002100F027
:400440004BF8164B181C01F081F9154B181C00F0D9FB144B181C00F0D5FB084B1B68391C114A081C111C1A1C01F0F0FE3B1C181C00F0C8FB00F090F8E7E7C046A401002053
:40048000A8010020582A0000602A0000942A0000982A0000A02A0000B82A000071170000C02A0000C82A0000D82A000080B500AF01F0D2F9031C181CBD4680BD80B582B03B
:4004C00000AF021CFB1D1A70FB1D1B78181C01F0B3F9BD4602B080BD90B585B000AF0A1CFB1D011C1970BB1D1A703C1C0F34FFF7DDFF031C2370BB1D1B78002B0FD0FB1D04
:400500001B780122111C99400B1CDAB23B1C0F331B781343DAB23B1C0F331A7010E0FB1D1B780122111C99400B1CDBB2DB43DBB23A1C0F3212781340DAB23B1C0F331A70D5
:400540003B1C0F331B78181CFFF7B8FFBD4605B090BDC04680B500AF0D4B00221A8000F083F800F015FC002001F014F800F0E8FE00F0F0FF00F064FCC04600F08DFC031C3F
:40058000002BFAD1034B64221A80BD4680BDC046AC010020B001002080B590B000AF00F0D9FF00F04DFCC04600F076FC031C002BFAD1264B1B88053B9BB29AB2244B1A805B
:4005C000234B1B881BB2002B02DA214B00221A801F4B1A881F4B1B8812B21BB29A4203DD1B4B1A881B4B1A80194B1B881AB2131C1B049A1A174B1B881BB2101C191C01F087
:4006000097FD031C9AB2144B1A80134B1B88181C00F07AF8114B181C00F0F4FA104B181C00F0F0FA0A4B1B881BB2391C0D4A081C111C1A1C01F00AFE3B1C181C00F0E2FA0C
:400640000A2001F01DFBBD4610B080BD88010020AE010020B0010020AC010020E02A0000E42A0000EC2A000080B500AF01F088FB01F034FC01F0E0FCBD4680BD80B582B016
:4006800000AF0A1CFB1D011C19703B1D1A80FB1D1B78022B0AD0032B0ED0012B00D011E03B1D1B88181C01F099FB0BE03B1D1B88181C01F041FC05E03B1D1B88181C01F009
:4006C000E9FCC046BD4602B080BDC04680B582B000AFBB1D18803B1D1980BB1C1A80BB1D1B880120191CFFF7C9FF3B1D1B880220191CFFF7C3FFBB1C1B880320191CFFF7CE
:40070000BDFFBD4602B080BD80B584B000AF021CBB1D1A80BB1D1A88534B9A4212D83B1C0E33012252421A80391C0C31BB1D1B881A1C9218D318DB180B803B1C0A33002290
:400740001A8080E0BB1D1A88484B9A4215D8BB1D1B88474AD31A9BB2391C0E311A1C9218D318DB180B803B1C0C33012252421A803B1C0A3300221A8065E0BB1D1A883D4B08
:400780009A4215D83B1C0E3300221A803B1C0C33012252421A80BB1D1B88374A9B189BB2391C0A311A1C9218D318DB180B804AE0BB1D1A88314B9A4215D83B1C0E330022BD
:4007C0001A80BB1D1B882E4AD31A9BB2391C0C311A1C9218D318DB180B803B1C0A33012252421A802FE0BB1D1A88264B9A4215D8BB1D1B88244A9B189BB2391C0E311A1CFC
:400800009218D318DB180B803B1C0C3300221A803B1C0A33012252421A8014E03B1C0E33012252421A803B1C0C3300221A80BB1D1B88164AD31A9BB2391C0A311A1C9218BA
:40084000D318DB180B803B1C0E3319883B1C0C331A883B1C0A331B88081C111C1A1CFFF735FFBD4604B080BDA92A00005455000055550000FE7F0000ABAAFFFFA9AA000079
:40088000AAAA000053D500005655FFFFFFFF000080B500AFFEE7C04680B584B000AF78600F4B1A687B68D3181A1C0E4BD31A802B09DC0B4B1B68FB60094B1A687B68D218C9
:4008C000074B1A6007E001F083FC031C0C221A6001235B42FB60FB68181CBD4604B080BDCC000020D001002080B586B000AF224B7B61224B3B61204B7B6135E03B691B689B
:40090000FB603B695B68BB603B699B683B6000237B600CE0FB681A68BB681A60BB680433BB60FB680433FB607B6804337B607A683B689A42EED13B69DB683B6000237B602D
:4009400008E0BB6800221A60BB680433BB607B6804337B607A683B689A42F2D13B6910333B617B69013B7B617B69002BC6D101F035FCFFF725FDFEE701000000442C00008D
:4009800080B582B000AF00237B600FE07B68032B04D8104B7A689200D35800E00E4B0F4A796889008B507B6801337B607B682F2BECD9FFF701FC0A4B00221A608023DB051B
:4009C0008022D205126801210A431A60BD4602B080BDC046000000009108000000000020C000002080B582B000AF786039607A683B68101C00211A1C01F01FFCBD4602B03A
:400A000080BDC04680B586B000AF7860396000233B6100237B612EE07B699B007A68D3181B68BB603B1C0F33BA681A70BB68FF229343BB6017E03B695B003A68D3181B78A2
:400A40001A1CBB68D3183A69520039688A1852781A703B6901333B613B1C0F331A783B1C0F33013A1A703B1C0F331B78002BE2D17B6901337B617B69062BCDD9BD4606B037
:400A800080BDC04680B500AF012000F003F8BD4680BDC04680B584B000AF021CFB1D1A70154B1B68FB60FB1D1B78002B05D0FB68802212061343FB6003E0FB685B005B082A
:400AC000FB600D4BFA681A600C4B1B68FB60FB1D1B78002B05D0FB68802292041343FB6003E0FA68064B1340FB60044BFA681A60BD4604B080BDC04680031A4008010B40A1
:400B0000FFFFFFFD80B500AF00F028F8BD4680BD80B500AF054B054A1268802109060A431A6000F017F8BD4680BDC0460000064080B500AF064B1B78002B04D1FFF7E2FFE9
:400B4000034B01221A70FFF7E3FFBD4680BDC0466C01002080B500AFBD4680BD80B500AF174B184A1A60184B00221A60174B01221A60174B07221A60164B07221A60164B21
:400B800000221A60154B01221A60154B154A1A60154B00221A60154B00221A60144B00221A60144B00221A60134B00221A60134B00221A60124B00221A60BD4680BDC04642
:400BC000000006400B000002400006404800064000030640040306401003064044000640000206400700008004020640880E0640C80E0640480F0640080F0640C80F0640EB
:400C0000880F064080B584B000AF78600023FB6009E07A68FB68D3181B78181C01F072FAFB680133FB607A68FB68D3181B78002BEFD1BD4604B080BD80B582B000AF00235F
:400C40007B6007E00A4A7B68D31800221A707B6801337B607B68002BF4D000F00BF8002000F0AEFA00F026F9BD4602B080BDC046BC01002080B582B000AF274B1B68DAB2FA
:400C8000264B1A70254B1B787B607B680F2293437B60234B1B78DBB21A1C0F2313407A6813437B601C4B7A681A601E4B1D4A1268920A92021A601B4B1A4A12688021890015
:400CC0000A431A60184B184A1168184A0A401A60154B154A126816490A431A60154B1B687B607A68144B13407B607B68C022D20013437B600F4B7A681A600F2000F0A0FF01
:400D00000E4B0F20191C00F00BFF0F20032100F02DFFBD4602B080BD00FF0840B401002062F1FF0F080008400400084037D75EFE0008A00110000140FFF0FFFF2D160000EE
:400D400080B582B000AF00F0ADFE00F075FE0020002100F07DFE0020002100F0AFFE00F093FE00F05BFE084B1B687B607B68074A13437B60044B7A681A600F2000F04AFFE2
:400D8000BD4602B080BDC046040008400010088080B500AF094B1B78002B04D1FFF74CFF064B01221A70FFF7CBFF054B044A12688021C9030A431A60BD4680BD7D01002063
:400DC0000400084080B584B000AF021CFB1D1A70FB1D1A78FB1D01321A70FB1D1B78012B00D10BE0FB1D1B78074A101C191C00F0FFF9031CFB60FB68002BE9D0FB1D1B780C
:400E0000181CBD4604B080BD7C01002080B582B000AF7860084B00221A707B68DAB2074B1A70054B81221A707B68181C00F030F9BD4602B080BDC0467401002075010020E5
:400E400080B500AF124B00221A70124BFF221A70104B1B78DBB2181CFFF7B4FF031C1A1C0C4B1A700B4B1B78DBB2002B0DD1084B1B78DBB201221343DAB2054B1A70054BCE
:400E80001B78DBB2181C00F003F9BD4680BDC046740100207501002080B500AF044B1B78DBB21A1C01231340181CBD4680BDC0467401002080B582B000AF00237B6006E078
:400EC0007B68181C00F064F87B6801337B607B68002BF5D0BD4602B080BDC04690B587B000AF786001237B610023391C13311A1C9218D3180B7000223B1C123392001A70F3
:400F00003C1C113400F002FE031C23701E4B7A699200D3581B68FB603B1C12331B780F22111C99400B1CDA43FB681340FB603B1C12331B780422141C9C40231CFA68134378
:400F4000FB60124B7A699200D358104A796989008A581268391C133109780720041C8C40211CC9430A401A60074B7A699200D358FA681A603B1C11331B78181C00F0CAFDD7
:400F8000BD4607B090BDC046AC2B0000C02B000090B589B000AF786001237B6100223B1C133392001A700023391C12311A1C9218D3180B700023FB61314A7B68D3181B7826
:400FC000BB61304B7A699200D3582E4A796989008A581268391C133109780F20041C8C40211CC9430A401A60BB69022B01D10023BB61BB69012B01D00623FB613C1C113494
:4010000000F084FD031C23701F4B7A699200D3581B68FB603B1C12331B780722111C99400B1CDA43FB681340FB603B1C12331B78FA69141C9C40231CFA681343FB60124BA5
:401040007A699200D358FA681A603B1C11331B78181C00F05FFD0D4B7A699200D3580B4A796989008A58126800210120041C8C40211CC9430A401A60BD4609B090BDC046E8
:40108000BC010020AC2B0000C02B0000D42B000090B587B000AF78603B1C173300221A70254B3B610C23013B9BB2181C002100F0CFFC0123013B9BB2181C002100F0FEFC82
:4010C0000F2000F0BDFD1D4B1B68FB60FB68FF229343FB607823FA681343FB60174BFA681A60174B1B68FB60FA68164B1340FB60FB68154A1343FB600F2000F08BFD7B6882
:40110000181CFFF7EBFE3C1C0B3400F0FFFC031C23700B4BFA681A60002000F0EDFC0B4B3A691A603B1C0B331B78181C00F0F2FCBD4607B090BDC0460000FFFF0800084035
:4011400004000840FF1FDFFF200020000C00084080B584B000AF7860144B1B6899B2144B7A685200D1527B68181CFFF711FF0F2000F066FD0F4B1B68FB60FA680E4B1340DB
:40118000FB60FB68A02212021343FB60094BFA681A600A4B094A1268FF218A431A600F2000F038FDBD4604B080BDC0460C0008407801002004000840FF1FDFFF080008405E
:4011C00080B584B000AF78607A68032313407B60064B1B68FB607B685B02FA681343FB60024BFA681A60BD4604B080BD0400084080B584B000AF786039603B68DB08FB6074
:401200003A680723134001229A403B1C0B331A707A68FB68D3181B783A1C0B3212781340DBB2002B01D0012300E00023181CBD4604B080BD80B586B000AFF860B9607A6003
:40124000BB68DB087B61BA680723134001229A403B1C13331A707B68002B0DD0FA687B69D318F9687A698A1811783A1C133212780A43D2B21A700EE0FA687B69D318F9683E
:401280007A698A181278391C13310978C943C9B20A40D2B21A70BD4606B080BD80B584B000AF78603B1C0F3313497A688A1812781A70124B7A685200D15A114B7A68520067
:4012C000D152104A7B68D31800221A700E4B7A6852000021D1523B1C0F331B7802210B4AD154064B7A685200D15A094B7A685200D152BD4604B080BDA82B000078010020A2
:4013000080010020840100208801002090010020C001002080B582B000AF78607B68181CFFF774FDC046FFF7B7FD031C002BFAD17B68181CFFF7B2FFBD4602B080BDC04645
:4013400080B582B000AF00237B6006E07B68181CFFF7E0FF7B6801337B607B68002BF5D0BD4602B080BDC04690B587B000AF78603B1C0F3368497A688A1812781A703B1C8E
:401380000C3303221A803B1C1033644A796849008A5A1A80624B1B78002B15D0614B7A685200D35A3C1C10343A1C10321288101C191C00F01DF9031C23805A4B7A68520012
:4013C000391C10310988D152574B7A685200D35A3A1C103212889A4212D3544A7B68D31800221A70504B7A685200D25A3B1C1233391C103109888A1A1A8001237B610CE0AD
:40140000494B7A685200D15A3B1C12333A1C103212888A1A1A8000237B617B69002B23D13B1C12331B88142B1ED9404A7B68D3181A783F497B68CB181B789A4209D37B68D0
:40144000181CFFF72BFF394A7B68D31800221A7046E0364A7B68D3181B780133DAB233497B68CB181A703BE03A1C12323B1C0C3312881B889A4207D93B1C12331B88132BC7
:401480002ED87B69002B2BD1274B7A685200D35A1B02BB60274A7B68D3181B78BA681343BB603B1C10331B88BA68D318BB601E4B7A685200D35ABA68D31ABB60BB681B0A0A
:4014C00099B2194B7A685200D152BB68DAB219497B68CB181A70154A7B68D31800221A703A1C12323B1C0C3312881B889A420AD97B69002B07D0104B7A685200391C123173
:401500000988D15204E00C4B7A6852000021D152BD4607B090BDC046A82B000078010020D5000020C001002080010020C4010020D4000020840100208801002080B582B0C6
:4015400000AF78607B68181CFFF70EFFBD4602B080BDC04680B582B000AF00237B6011E00B4A7B68101C191CFFF742FE031C3B603B68002B03D07B68181CFFF7DFFF7B68D5
:4015800001337B607B68002BEAD0BD4602B080BD7C01002080B584B000AF78603B1C0F3300221A7001213B1C0E333A1C0F3212788A181A703B1C0F331B780C4A101C191CA6
:4015C0000122FFF737FE3B1C0F331A783B1C0F3301321A703A1C0F323B1C0E3312781B789A42E7D3BD4604B080BDC0467C01002080B584B000AF0A1CBB1D011C19803B1D7F
:401600001A80BB1D1A883B1D1B88D318FB603B1D1B885B00FA68D318FB60FB689B08FB60FB689BB2181CBD4604B080BD80B500AF0F2000F005FB2C4B01221A602B4B1B78FE
:40164000DBB2181CFFF784FD294B1B78DBB2DBB25BB2002B08DA264B1B78DBB201229343DAB2234B1A703AE0204B1B78DBB2181CFFF7A8FB031C1A1C1C4B1A701B4B1B7838
:40168000DBB2002B06D1194B1B78DBB2181CFFF7FFFC24E0164B1B78DBB201229343DAB2134B1A70124B1B78DBB21A1C4023134015D0104B00221A700DE00E4B1B780D4A7B
:4016C00012780D49895C0D4AD1540A4B1B780133DAB2084B1A70074B1B78002BEDD00F2000F098FABD4680BD14000840750100207401002094010020B80100207C010020B4
:4017000080B584B000AF021CFB1D1A700E4B1B68DAB23B1C0F3304218A431A70FB1D1B789B00DAB204231340D9B23B1C0F333A1C0F3212780A431A70034B3A1C0F3212787D
:401740001A60BD4604B080BD0000044080B582B000AF786000F066F87B68181C00F024F8012000F02FF800F053F8BD4602B080BD80B582B000AF00F03BF9031C7B60094B6B
:401780001B685A1C074B1A60064B1B68013302D1044B00221A607B68181C00F033F9BD4602B080BDA401002080B582B000AF7860034A8C237968D150BD4602B080BDC046D0
:4017C0000000002090B585B000AF021CFB1D1A701E23FB603C1C0B3400F098F9031C23700A4B0A4A126892009108FA1D1078FA68041C9440221C0A431A603B1C0B331B780A
:40180000181C00F087F9BD4605B090BD10E400E080B500AF024B802212031A60BD4680BD00E100E080B500AF024B802212031A60BD4680BD80E100E080B582B000AF021CB1
:40184000FB1D1A70034BFA1D12781A70BD4602B080BDC04672000F4080B500AF024B1B78DBB2181CBD4680BD72000F4080B584B000AF021CFB1D1A700E4B1B68DAB23B1C77
:401880000F3308218A431A70FB1D1B78DB00DAB208231340D9B23B1C0F333A1C0F3212780A431A70034B3A1C0F3212781A60BD4604B080BD0000044080B500AF044B044A18
:4018C0001268802109060A431A60BD4680BDC0464400024080B500AF124B8422D2041A60104B104A12681A60002000F04BF80D4B0C4A12681A600C4BC32292001A600120ED
:4019000000F06AF8094B31221A60FA23DB01181C00F046F8FA239B01181C00F04FF8BD4680BDC046C0010540E4010540E801054090B583B000AFFC1D00F0E8F8031C23704F
:40194000064B064A126808210A431A60FB1D1B78181C00F0DFF8BD4603B090BD0000054080B500AF064B1B78002B04D1FFF7B2FF034B01221A70FFF7DBFFBD4680BDC046EE
:401980009501002080B582B000AF7860034B7A681204120C1A60BD4602B080BDC801054080B582B000AF7860034B7A681204120C1A60BD4602B080BDD401054080B582B066
:4019C00000AF7860034B7A681204120C1A60BD4602B080BDCC01054080B582B000AF7860024B7A681A60BD4602B080BDF801054080B500AF024B1B68181CBD4680BDC04689
:401A0000FC01054080B582B000AF7860024B7A681A60BD4602B080BDF001054080B500AF044B044A1268802109060A431A60BD4680BDC0460000024080B500AF034B034A2C
:401A40001268520052081A60BD4680BD0000024080B584B000AF0A1CBB1D011C19807B1D1A70084B1B681B0C1B04FB60BB1D1A88FB681343BB60034BBA681A60BD4604B0F0
:401A800080BDC0460000024080B500AF044B044A1268802109060A431A60BD4680BDC0464000024080B500AF034B034A1268520052081A60BD4680BD4000024080B584B01D
:401AC00000AF0A1CBB1D011C19807B1D1A70084B1B681B0C1B04FB60BB1D1A88FB681343BB60034BBA681A60BD4604B080BDC04640000240000000000230800804D0C046A2
:401B00000138FDD1C046C046C0467047EFF3108072B6704780F310887047C046C046C04680B584B000AF021C3960FB1D1A7080239B05FB60FB1D1B781F2B02D9002000F0C1
:401B400095F8FB1D1B7810339B00FA68D3181B68BB60FB1D1B7810339B00FA68D3183A681A60BB68181CBD4604B080BD90B587B000AF0A1CFB1D011C1970BB1D1A70BB1DDE
:401B80001B78032B02D9002000F070F8FB1D1B781F2B02D9002000F069F8FB1D1A7803231340DB0006337B613C1C1334FFF7AEFF031C2370FB1D1B789B08DBB29B001449F6
:401BC0005B181B68FB607B690322111C99400B1CDA43FB681340FB60BB1D1A787B69111C99400B1CFA681343FB60FB1D1B789B08DBB29B00064A9B18FA681A603B1C1333B0
:401C00001B78181CFFF786FFBD4607B090BDC04600E400E080B582B000AF021CFB1D1A70064BFA1D11781F220A400121081C9040021C1A60BD4602B080BDC04600E100E0D8
:401C400080B582B000AF021CFB1D1A70064BFA1D11781F220A400121081C9040021C1A60BD4602B080BDC04680E100E080B582B000AF021CFB1D1A7001BEBD4602B080BDA4
:401C800080B582B000AF786008E00C4B1B68181CFFF732FF7B680A4A9B187B607A6880231B029A42F1D8074B1B687A685343181CFFF722FFBD4602B080BDC046E400002079
:401CC0000080FFFFDC00002080B582B000AF021CBB1D1A80BB1D1B88044A12785343181CFFF70AFFBD4602B080BDC046E000002080B500AF104B8222D2041A600E4B0E4ACC
:401D000012681A60002000F04DF80B4B0A4A12681A600A4B0C221A60012000F08BF8084B31221A60074B181C00F04AF8054B181C00F054F8BD4680BD80010540A4010540A3
:401D4000A8010540FFFF000090B583B000AFFC1DFFF7DCFE031C2370084B084A126804210A431A60FB1D1B78181CFFF7D3FE0420182100F041F8BD4603B090BD0000054036
:401D800080B500AF064B1B78002B04D1FFF7B0FF034B01221A70FFF7D7FFBD4680BDC0469601002080B582B000AF7860034B7A681204120C1A60BD4602B080BD8801054066
:401DC00080B582B000AF7860034B7A681204120C1A60BD4602B080BD9401054080B582B000AF7860034B7A681204120C1A60BD4602B080BD8C01054090B585B000AF7860BA
:401E000039603C1C0F34FFF781FE031C2370084B3A687968081C9040021C1A603B1C0F331B78181CFFF776FEBD4605B090BDC0460800054080B582B000AF7860024B7A68A6
:401E40001A60BD4602B080BDB801054080B500AF104B8222D2041A600E4B0E4A12681A60002000F04DF80B4B0A4A12681A600A4B0C221A60012000F08BF8084B31221A607C
:401E8000074B181C00F04AF8054B181C00F054F8BD4680BD400105406401054068010540FFFF000090B583B000AFFC1DFFF72EFE031C2370084B084A126802210A431A6071
:401EC000FB1D1B78181CFFF725FE0220182100F041F8BD4603B090BD0000054080B500AF064B1B78002B04D1FFF7B0FF034B01221A70FFF7D7FFBD4680BDC04697010020EC
:401F000080B582B000AF7860034B7A681204120C1A60BD4602B080BD4801054080B582B000AF7860034B7A681204120C1A60BD4602B080BD5401054080B582B000AF78600F
:401F4000034B7A681204120C1A60BD4602B080BD4C01054090B585B000AF786039603C1C0F34FFF7D3FD031C2370084B3A687968081C9040021C1A603B1C0F331B78181C90
:401F8000FFF7C8FDBD4605B090BDC0460800054080B582B000AF7860024B7A681A60BD4602B080BD7801054080B500AF104B8222D2041A600E4B0E4A12681A60002000F0DF
:401FC0004DF80B4B0A4A12681A600A4B0C221A60012000F08BF8084B31221A60074B181C00F04AF8054B181C00F054F8BD4680BD000105402401054028010540FFFF000079
:4020000090B583B000AFFC1DFFF780FD031C2370084B084A126801210A431A60FB1D1B78181CFFF777FD0120182100F041F8BD4603B090BD0000054080B500AF064B1B7857
:40204000002B04D1FFF7B0FF034B01221A70FFF7D7FFBD4680BDC0469801002080B582B000AF7860034B7A681204120C1A60BD4602B080BD0801054080B582B000AF7860FB
:40208000034B7A681204120C1A60BD4602B080BD1401054080B582B000AF7860034B7A681204120C1A60BD4602B080BD0C01054090B585B000AF786039603C1C0F34FFF7BB
:4020C00025FD031C2370084B3A687968081C9040021C1A603B1C0F331B78181CFFF71AFDBD4605B090BDC0460800054080B582B000AF7860024B7A681A60BD4602B080BD5C
:402100003801054080B582B000AF7860C046064B1A680F231340082BF9D0044B7A681A60BD4602B080BDC0460802064040020640002934D00123002210B488422CD3012439
:402140002407A14204D2814202D209011B01F8E7E400A14204D2814202D249005B00F8E7884201D3401A1A434C08A04202D3001B5C0822438C08A04202D3001B9C08224375
:40218000CC08A04202D3001BDC082243002803D01B0901D00909E3E7101C10BC7047002801D00020C04307B4024802A14018029003BDC046190000000029F0D003B5FFF791
:4021C000B9FF0EBC4243891A1847C0467047C046014B18687047C0464801002070B50E4B0E4D0024ED1AAD101E1CAC4204D0A300F35898470134F8E700F012FD084B094DDB
:402200000024ED1AAD101E1CAC4204D0A300F35898470134F8E770BD2C2C00002C2C00002C2C0000342C000010B50023934203D0CC5CC4540133F9E710BD031C8218934205
:4022400002D019700133FAE7704700000EB400B59CB01DAB04CB822202A992008A810A4A02908A604A6101225242CA81074A086110681D9A019300F06BF8029A0023137062
:402280001CB008BC03B01847FFFFFF7F48010020F0B58D6885B0071C0C1C03920193AB4245D390228B89D20013423DD062690326564309692068F20F401A96190290021C14
:4022C0000198013212187610964200D2161C381C5A050FD5311C00F021FB051E13D0029A2169FFF7A1FFA289184B134080221343A38111E0321C00F065FB051E0CD1381CF4
:40230000216900F0C3FA0C233B60A389402213430120A381404217E0029B2561ED1825606661019DF61AA6600198A84200D2019D2A1C2068039900F090FAA2680020531B63
:40234000A36023685D19256005B0F0BD7FFBFFFFF0B59FB0039005938B890E1C171C19060FD53269002A0CD1402100F0D7FA30603061002803D103990C230B60C9E0402344
:40238000736106AD00236B6120236B763023AB763C1C2378002B03D1E21B029211D003E0252BF9D00134F4E70398311C3A1C029BFFF76EFF013000D1A6E06969029A8B18C8
:4023C0006B612378002B00D19EE0012252426A606A4600235B3201342B60EB60AB601370AB654E4F2178381C052200F02BFA002807D0C71B2B680120B84018432860013407
:40240000EFE72B68D90603D56A4620215B3211701A0703D56A462B215B32117022782A2A01D0099B0EE0059A111D12680591002A01DB099204E05242EA60022213432B60E4
:40244000013409E02278303A092A04D80A214B4301349B18F6E7099323782E2B18D163782A2B09D1059B02341A1D1B680592002B0DDA01235B420AE0013400232278303AEA
:40248000092A04D80A214B4301349B18F6E70793234F2178381C032200F0D4F9002806D0C71B2B684020B84018432860013421781C480622671C297600F0C4F9002812D0D3
:4024C000194B002B06D1059B0722073393430833059314E005AB00930398291C321C134B00E000BF07E005AB00930398291C321C0E4B00F091F804900499013104D06A6934
:40250000049953186B6143E7B3895A0601D40B9801E0012040421FB0F0BDC046EA2B0000F02B0000F42B00000000000091220000F7B5151C01930A698B68061C0C1C93428B
:4025400000DA131C221C2B6043321278002A01D001332B602068800602D52B6802332B60216806270F401FD0231C43331B785A1E9341226892061FD5E11840313020C87008
:40258000211C5A1C45310978A21840320233D17012E0221C301C019919320123089FB847013011D0009F01370097E0682968009F431A9F42EDDBD7E7221C301C019943324F
:4025C000089FB847013002D10120404223E0206806212B68E26801400025042903D1D51AEB43DB171D40A26823699A4201DDD31AED1800270097009FAF420BDA221C301C2D
:4026000001991A320123089FB8470130DCD0009F0137EFE70020FEBDF0B50D1C8BB0433506920590079304950B7E0C1C109A6E2B00D1A7E011D8632B22D009D8002B00D112
:40264000B0E0582B00D0C0E045310B707B4D4EE0642B1CD0692B1AD0B7E0732B00D1A5E009D86F2B29D0702B00D0AEE00E68202333430B6036E0752B1FD0782B32D0A4E097
:4026800013680D1C191D423511601B689FE0216813680E0603D5191D11601E6805E04806F9D5191D116000215E5E644B002E3BDA049D2D2276422A7036E0216813680E0652
:4026C00003D5191D11601E6804E04806F9D5191D1E881160594B227E039308276F2A1ED00A271CE0231C78214533554D197011682368081D039510601E0601D50E6802E0CD
:402700005806FBD50E88D90702D52022134323601027002E03D1226820239A432260231C002243331A7001E003930A276368A360002B03DB2568042295432560002E02D1AD
:40274000049D002B0ED0049D301C391CFFF734FD0398013D435C301C2B70391CFFF7E8FC061EF1D1082F09D12168C90706D5626823699A4202DC013D30232B70049E731B21
:4027800023612AE0086813684969050604D5181D10601B68196005E04606F8D5181D10601B68198000232361049D16E01368191D11601D68281C00F03DF963682061984235
:4027C00000D923612069606004E0251C42352B7001232361049E00233370079E05980096211C09AA069BFFF7A3FE013002D10120404221E02A1C059806992369079DA847A3
:402800000130F4D02668B60705D4099BE068984212DA181C10E00025E0680999431A9D42F3DA221C0598069919320123079EB0470130DCD00135EFE70BB0F0BDFB2B000095
:402840000C2C0000C9B28218904204D003788B4202D00130F8E70020704770B5814201D300230CE08C18A042FAD28518131C013B0BD351426618F65C6918CE54F7E79342A8
:4028800003D0CC5CC4540133F9E770BD30B5002940D004390B68002B00DAC9181E4A1368141C002B02D14B60116033E099420FD208680A189A4205D113685268C01808605B
:4028C0004A6000E04B60216024E08A4203D8131C5A68002AF9D11D685C198C420BD10968691858181960904214D114685268091919605A600EE08C4202D90C23036009E0BF
:4029000008680C18944203D114685268001908604A60596030BDC046A001002070B50323CD1C9D430835061C0C2D01D20C2501E0002D3FDB8D423DD3204B1C681A1C211C72
:40294000002913D00868431B0DD40B2B02D90B60CC181EE08C4202D1636813601AE0486860600C1C16E00C1C4968E9E7144C2068002803D1301C00F04BF82060301C291CBA
:4029800000F046F8431C15D0C41C03239C4384420AD12560201C0B300722231D9043C31A0BD05A42E25008E0211A301C00F030F80130EED10C233360002070BDA00100201A
:4029C0009C010020F8B5061C0C1C151C002904D1111CFFF7A3FF041C18E0002A03D1FFF755FF2C1C12E000F02CF8A8420ED2301C291CFFF793FF071E07D0211C2A1CFFF729
:402A000013FC301C211CFFF741FF3C1C201CF8BD38B5074C0023051C081C2360FDF73CFF431C03D12368002B00D02B6038BDC046C80100200023C25C0133002AFBD1581E1C
:402A4000704704390B68181F002B02DAC8581B18181F7047000000001B5B481B5B324A002E2E2E2E2E2046544B4C2050726F6A656B74204B6C657474657273746569672053
:402A80005465726D696E616C202E2E2E2E2E2E2E000000000A0D00001B5B3130430000006279204D69636861656C20536175736D696B6174000000000A0A0D1B5B730000BD
:402AC0001B5B751B5B32420054696D6520636F756E7465723A2000002530386C750000001B5B7500446174613A2000002530386C750000000400000000300F400004004096
:402B00000F40000401000F4005320F400B330F4004400F400D410F4002420F4013430F40720338203E1058045B045F011D306D046E106F0289248D108E108F02E224E630FF
:402B4000EA4056805D40D440D620408048086208820888808A808C089E80B540D040D210D840E2207410DC0218041B041C8064207580800488508C208D80A410A704B70404
:402B8000C60ED801DC02E002E403E604EA020000010000000100000000000000780000000000FFFF010C0000000000000000014004000140080001400C00014010000140F9
:402BC000080004400801044008020440080304400804044000000440000104400002044000030440000404404300232D302B2000686C4C00656667454647003031323334C5
:402C00003536373839414243444546003031323334353637383961626364656600000000F8B5C046F8BC08BC9E4670478903000081090000F8B5C046F8BC08BC9E467047E8
:402C400061030000582C0000C800002088000000800000000000000000000000D0010020C0F1FF0F0501000000366E01C05D0000180000000000E02E0000000000000000DE
:402C8000000000000000000000000000000000000000000000000000E82B000000000000000000000000000000000000000000000000000000000000000000000000000001
:402CC000000000000000000000000000000000000000000000000000E8000020000000000000000000000000000000000000000000000000000000000000000000000000CC
:402D00000000000000000000000000000000000000000000000000000000000000000000000000000000000000000000000000000000000000000000000000000000000093
:402D40000000000000000000000000000000000000000000000000000000000000000000000000000000000000000000000000000000000000000000000000000000000053
:402D80000000000000000000000000000000000000000000000000000000000000000000000000000000000000000000000000000000000000000000000000000000000013
:402DC00000000000000000000000000000000000000000000000000000000000000000000000000000000000000000000000000000000000000000000000000000000000D3
:0200000490303A
:02000000DF8D92
:0200000490402A
:200000000000000000000000000000000000000000000000000000000000000000000000E0
:0200000490501A
:0C000000000204C81193110104D6F12085
:0200000490600A
:0100000001FE
:00000001FF